:020000040800F2
:1000000000000220F12B00085D2700085F27000890
:10001000612700086327000865270008000000002A
:10002000000000000000000000000000C14B0008BC
:100030006727000800000000614C0008ED47000839
:10004000412C0008412C0008412C0008412C0008DC
:10005000412C0008412C0008412C0008412C0008CC
:10006000412C0008412C0008412C0008412C0008BC
:10007000412C0008412C0008412C0008412C0008AC
:10008000412C0008412C0008412C0008412C00089C
:10009000412C0008412C0008412C0008412C00088C
:1000A00069270008412C0008412C0008412C000859
:1000B000412C0008412C0008412C0008412C00086C
:1000C000412C0008412C0008412C0008412C00085C
:1000D000412C0008412C00087927000889270008D6
:1000E000412C0008412C0008412C0008412C00083C
:1000F000412C000899270008412C0008412C0008D9
:10010000412C0008412C0008412C0008412C00081B
:10011000412C0008412C0008412C0008412C00080B
:10012000412C0008412C0008412C0008412C0008FB
:10013000412C0008412C0008412C0008412C0008EB
:10014000412C0008412C0008412C0008412C0008DB
:10015000412C0008412C0008412C0008412C0008CB
:10016000412C0008412C0008412C0008412C0008BB
:10017000412C0008412C0008412C00080000000020
:08018000412C0008412C00088D
:1001C00081F0004102E000BF83F0004330B54FEA08
:1001D00041044FEA430594EA050F08BF90EA020F75
:1001E0001FBF54EA000C55EA020C7FEA645C7FEA08
:1001F000655C00F0E2804FEA5454D4EB5555B8BF2B
:100200006D420CDD2C4480EA020281EA030382EA9B
:10021000000083EA010180EA020281EA0303362D2D
:1002200088BF30BD11F0004F4FEA01314FF4801C00
:100230004CEA113102D0404261EB410113F0004F12
:100240004FEA03334CEA133302D0524263EB4303C9
:1002500094EA050F00F0A780A4F10104D5F1200E67
:100260000DDB02FA0EFC22FA05F2801841F10001C2
:1002700003FA0EF2801843FA05F359410EE0A5F196
:1002800020050EF1200E012A03FA0EFC28BF4CF0C7
:10029000020C43FA05F3C01851EBE37101F000457D
:1002A00007D54FF0000EDCF1000C7EEB00006EEB8A
:1002B0000101B1F5801F1BD3B1F5001F0CD3490814
:1002C0005FEA30004FEA3C0C04F101044FEA44526B
:1002D00012F5800F80F09A80BCF1004F08BF5FEAF2
:1002E000500C50F1000041EB045141EA050130BDD2
:1002F0005FEA4C0C404141EB0101013C28BFB1F5E4
:10030000801FE9D291F0000F04BF01460020B1FA2E
:1003100081F308BF2033A3F10B03B3F120020CDA01
:100320000C3208DD02F1140CC2F10C0201FA0CF0DF
:1003300021FA02F10CE002F11402D8BFC2F1200C44
:1003400001FA02F120FA0CFCDCBF41EA0C019040FA
:10035000E41AA2BF01EB0451294330BD6FEA040443
:100360001F3C1CDA0C340EDC04F11404C4F120022E
:1003700020FA04F001FA02F340EA030021FA04F340
:1003800045EA030130BDC4F10C04C4F1200220FA97
:1003900002F001FA04F340EA0300294630BD21FAD5
:1003A00004F0294630BD94F0000F83F4801306BF9B
:1003B00081F480110134013D4EE77FEA645C18BF8F
:1003C0007FEA655C29D094EA050F08BF90EA020F26
:1003D00005D054EA000C04BF1946104630BD91EA1E
:1003E000030F1EBF0021002030BD5FEA545C05D121
:1003F0004000494128BF41F0004130BD14F5800460
:100400003CBF01F5801130BD01F0004545F0FE41D3
:1004100041F470014FF0000030BD7FEA645C1ABF08
:10042000194610467FEA655C1CBF0B46024650EA3F
:10043000013406BF52EA033591EA030F41F400216B
:1004400030BD00BF90F0000F04BF0021704730B5F1
:100450004FF4806404F132044FF000054FF00001C6
:1004600050E700BF90F0000F04BF0021704730B587
:100470004FF4806404F1320410F0004548BF40425C
:100480004FF000013EE700BF42004FEAE2014FEAB1
:1004900031014FEA02701FBF12F07F4393F07F4F8C
:1004A00081F06051704732F07F4208BF704793F08F
:1004B0007F4F04BF41F40021704730B54FF46074A2
:1004C00001F0004521F000411CE700BF50EA0102A5
:1004D00008BF704730B54FF000050AE050EA01024E
:1004E00008BF704730B511F0004502D5404261EBBE
:1004F00041014FF4806404F132045FEA915C3FF4FF
:10050000D8AE4FF003025FEADC0C18BF03325FEA9B
:10051000DC0C18BF033202EBDC02C2F1200300FA4C
:1005200003FC20FA02F001FA03FE40EA0E0021FA71
:1005300002F11444BDE600BF70B54FF0FF0C4CF45F
:10054000E06C1CEA11541DBF1CEA135594EA0C0F11
:1005500095EA0C0F00F0DEF82C4481EA030621EA4C
:100560004C5123EA4C5350EA013518BF52EA033587
:1005700041F4801143F4801338D0A0FB02CE4FF039
:100580000005E1FB02E506F00042E0FB03E54FF069
:100590000006E1FB03569CF0000F18BF4EF0010E61
:1005A000A4F1FF04B6F5007F64F5407404D25FEA5D
:1005B0004E0E6D4146EB060642EAC62141EA555110
:1005C0004FEAC52040EA5E504FEACE2EB4F1FD0C52
:1005D00088BFBCF5E06F1ED8BEF1004F08BF5FEAD0
:1005E000500E50F1000041EB045170BD06F0004682
:1005F00046EA010140EA020081EA0301B4EB5C042F
:10060000C2BFD4EB0C0541EA045170BD41F4801126
:100610004FF0000E013C00F3AB8014F1360FDEBF4B
:10062000002001F0004170BDC4F10004203C35DA27
:100630000C341BDC04F11404C4F1200500FA05F3AA
:1006400020FA04F001FA05F240EA020001F000424B
:1006500021F0004110EBD37021FA04F642EB0601C1
:100660005EEA430E08BF20EAD37070BDC4F10C04EB
:10067000C4F1200500FA04F320FA05F001FA04F2AF
:1006800040EA020001F0004110EBD37041F100019B
:100690005EEA430E08BF20EAD37070BDC4F12005A6
:1006A00000FA05F24EEA020E20FA04F301FA05F20E
:1006B00043EA020321FA04F001F0004121FA04F2B6
:1006C00020EA020000EBD3705EEA430E08BF20EA86
:1006D000D37070BD94F0000F0FD101F000464000C0
:1006E00041EB010111F4801F08BF013CF7D041EA42
:1006F000060195F0000F18BF704703F00046520046
:1007000043EB030313F4801F08BF013DF7D043EA16
:100710000603704794EA0C0F0CEA135518BF95EACC
:100720000C0F0CD050EA410618BF52EA4306D1D153
:1007300081EA030101F000414FF0000070BD50EA72
:10074000410606BF1046194652EA430619D094EAFC
:100750000C0F02D150EA013613D195EA0C0F05D1E6
:1007600052EA03361CBF104619460AD181EA03013A
:1007700001F0004141F0FE4141F470014FF00000F2
:1007800070BD41F0FE4141F4780170BD70B54FF08D
:10079000FF0C4CF4E06C1CEA11541DBF1CEA13550D
:1007A00094EA0C0F95EA0C0F00F0A7F8A4EB0504EF
:1007B00081EA030E52EA03354FEA013100F08880E6
:1007C0004FEA03334FF0805545EA131343EA1263AF
:1007D0004FEA022245EA111545EA10654FEA002664
:1007E0000EF000419D4208BF964244F1FD0404F51D
:1007F000407402D25B084FEA3202B61A65EB030579
:100800005B084FEA32024FF480104FF4002CB6EB35
:10081000020E75EB030E22BFB61A754640EA0C00B5
:100820005B084FEA3202B6EB020E75EB030E22BFF5
:10083000B61A754640EA5C005B084FEA3202B6EB36
:10084000020E75EB030E22BFB61A754640EA9C00F5
:100850005B084FEA3202B6EB020E75EB030E22BFC5
:10086000B61A754640EADC0055EA060E18D04FEA83
:10087000051545EA16754FEA06164FEAC30343EA23
:1008800052734FEAC2025FEA1C1CC0D111F4801FF0
:100890000BD141EA00014FF000004FF0004CB6E7E9
:1008A00011F4801F04BF01430020B4F1FD0C88BF88
:1008B000BCF5E06F3FF6AFAEB5EB030C04BFB6EB93
:1008C000020C5FEA500C50F1000041EB045170BD86
:1008D0000EF0004E4EEA113114EB5C04C2BFD4EBB3
:1008E0000C0541EA045170BD41F480114FF0000E37
:1008F000013C90E645EA060E8DE60CEA135594EAB3
:100900000C0F08BF95EA0C0F3FF43BAF94EA0C0FB5
:100910000AD150EA01347FF434AF95EA0C0F7FF42A
:1009200025AF104619462CE795EA0C0F06D152EA7E
:1009300003353FF4FDAE1046194622E750EA410662
:1009400018BF52EA43067FF4C5AE50EA41047FF473
:100950000DAF52EA43057FF4EBAE12E74FF0FF3CD8
:1009600006E000BF4FF0010C02E000BF4FF0010CA9
:100970004DF804CD4FEA410C7FEA6C5C4FEA430C22
:1009800018BF7FEA6C5C1BD001B050EA410C0CBF71
:1009900052EA430C91EA030F02BF90EA020F0020D3
:1009A000704710F1000F91EA030F58BF994208BF3A
:1009B00090422CBFD8176FEAE37040F001007047F7
:1009C0004FEA410C7FEA6C5C02D150EA013C07D14E
:1009D0004FEA430C7FEA6C5CD6D152EA033CD3D099
:1009E0005DF8040B704700BF8446104662468C4693
:1009F0001946634600E000BF01B5FFF7B7FF0028C6
:100A000048BF10F1000F01BD4DF808EDFFF7F4FFEE
:100A10000CBF012000205DF808FB00BF4DF808ED79
:100A2000FFF7EAFF34BF012000205DF808FB00BF9C
:100A30004DF808EDFFF7E0FF94BF012000205DF8BE
:100A400008FB00BF4DF808EDFFF7CEFF94BF012073
:100A500000205DF808FB00BF4DF808EDFFF7C4FF6C
:100A600034BF012000205DF808FB00BF4A0011D20E
:100A700012F5001211D20DD56FF47873B3EB6252F8
:100A80000ED44FEAC12343F0004343EA505323FA04
:100A900002F070474FF00000704750EA013002D179
:100AA0004FF0FF3070474FF00000704753B94AB91C
:100AB000002908BF00281CBF4FF0FF314FF0FF3066
:100AC00000F00CB8ADF1080C6DE904CE2DF0D0FDAE
:100AD000DDF804E0DDE9022304B07047704700BF91
:100AE00002780B78012A28BF9A4240F0D8806DE93D
:100AF000044540EA0104CDE902676FF0000C4FEABB
:100B000044721AB380EA010414F0070F6BD100F0AD
:100B1000070420F0070004F0030521F007014FEA65
:100B2000C505F0E8042314F0040FF1E804670CFA9B
:100B300005F462EA040266EA04060BD063EA0403E1
:100B4000624667EA0407664604E000BFF0E8042353
:100B5000F1E8046782FA4CF582EA0604A4FA8CF400
:100B60006CBB83FA4CF583EA0705A5FA8CF595B9B9
:100B700050E9022351E9026782FA4CF582EA060441
:100B8000A4FA8CF483FA4CF583EA0705A5FA8CF5F0
:100B90002543DBD09CB92DBAB5FA85F424F00704BF
:100BA00027FA04F1DDE9026723FA04F303F0FF00FA
:100BB00001F0FF01FDE80445A0EB0100704724BAF5
:100BC000B4FA84F424F0070426FA04F1DDE902679C
:100BD00022FA04F202F0FF0001F0FF01FDE80445F3
:100BE000A0EB0100704714F0030F3CD110F0030498
:100BF00028D150F8082B51F8083B82FA4CF582EACC
:100C00000305A5FA8CF55DB950F8042C51F8043CA5
:100C100082FA4CF582EA0305A5FA8CF5002DE8D09E
:100C20002DBAB5FA85F424F0070423FA04F122FA68
:100C300004F202F0FF0001F0FF01FDE80445A0EB23
:100C4000010070474FEAC40420F0030050F8082B5D
:100C500021F0030151F8083B0CFA04F462EA0402A3
:100C600063EA0403C9E710F003041DD0A1EB0401FB
:100C700020F00300E40750F8042B06D012D28B7842
:100C80005FFAA2F4E41A06D12BB1CB785FFAB2F482
:100C9000E41A00D133B920465DF8104B7047A2EB3F
:100CA0000300704701F1040150F8042BCC0721F038
:100CB000030151F8043B48D824D222F07F4482FA41
:100CC0004CF594EA1325A5FA8CF50AD165B951F8CB
:100CD000043B84EA0204B4EB036F0ED150F8042BFA
:100CE000EBE74FEA132355E035F07F454DD1087807
:100CF000FDE80445C0F1000070474FEA126203F0BE
:100D0000FF0347E002EA1C4482FA4CF594EA1345DB
:100D1000A5FA8CF50AD165B951F8043B84EA0204BE
:100D2000B4EB034F0CD150F8042BEBE74FEA13431D
:100D300030E015EA1C4528D10B884FEA124229E021
:100D40004FEA124203EA1C4324E002F0FF0482FA55
:100D50004CF594EA1365A5FA8CF50AD165B951F8FA
:100D6000043B84EA0204B4EB032F09D150F8042BAE
:100D7000EBE74FEA13630DE015F0FF0F05D10B68A9
:100D80004FEA122223F07F4304E04FF00000FDE819
:100D90000445704712BA1BBA82FA4CF482EA030483
:100DA000A4FA8CF5B5FA85F402FA04F203FA04F316
:100DB0004FEA1260FDE80445A0EB1360704700BFE6
:100DC000844641EA000313F003036DD1403A41D356
:100DD00051F8043B40F8043B51F8043B40F8043B15
:100DE00051F8043B40F8043B51F8043B40F8043B05
:100DF00051F8043B40F8043B51F8043B40F8043BF5
:100E000051F8043B40F8043B51F8043B40F8043BE4
:100E100051F8043B40F8043B51F8043B40F8043BD4
:100E200051F8043B40F8043B51F8043B40F8043BC4
:100E300051F8043B40F8043B51F8043B40F8043BB4
:100E400051F8043B40F8043B51F8043B40F8043BA4
:100E5000403ABDD2303211D351F8043B40F8043B44
:100E600051F8043B40F8043B51F8043B40F8043B84
:100E700051F8043B40F8043B103AEDD20C3205D354
:100E800051F8043B40F8043B043AF9D2043208D04C
:100E9000D2071CBF11F8013B00F8013B01D30B88BE
:100EA00003806046704700BF082A13D38B078DD09C
:100EB00010F003038AD0C3F10403D21ADB071CBF6E
:100EC00011F8013B00F8013B80D331F8023B20F8D8
:100ED000023B7BE7043AD9D3013A11F8013B00F811
:100EE000013BF9D20B7803704B7843708B78837099
:100EF0006046704700000000000000000000000095
:100F000030B490F800F020F007016FF0000C10F002
:100F1000070491F820F040F048804FF000046FF093
:100F20000700D1E9002391F840F000F1080082FAAF
:100F30004CF2A4FA8CF283FA4CF3A2FA8CF34BBB7A
:100F4000D1E9022382FA4CF200F10800A4FA8CF2F3
:100F500083FA4CF3A2FA8CF3E3B9D1E9042382FAC1
:100F60004CF200F10800A4FA8CF283FA4CF3A2FAD6
:100F70008CF37BB9D1E9062301F1200182FA4CF20E
:100F800000F10800A4FA8CF283FA4CF3A2FA8CF375
:100F9000002BC6D0002A04BF04301A4612BAB2FA97
:100FA00082F200EBD20030BC7047D1E9002304F09C
:100FB0000305C4F100004FEAC50514F0040F91F8D1
:100FC00040F00CFA05F562EA05021CBF63EA05036E
:100FD00062464FF00004AAE7000000000000000095
:100FE00001F0FF01102A2BDB10F0070F08D010F8DA
:100FF000013B013A8B422DD010F0070F42B3F6D1DE
:10100000F0B441EA012141EA014122F007047FF0F6
:1010100000070023F0E80256083C85EA010586EA4D
:10102000010685FA47F5A3FA87F586FA47F6A5FA89
:1010300087F68EB9EED1F0BC01F0FF0102F0070295
:1010400032B110F8013B013A83EA010313B1F8D140
:101050000020704701387047002D06BF3546033821
:10106000073815F0010F07D1013015F4807F02BF5A
:10107000013015F4C03F0130F0BC0138704700BFAB
:101080004FEA410C7FEA6C5C02D150EA013C0AD184
:101090004FEA430C7FEA6C5C02D152EA033C02D176
:1010A0004FF0000070474FF0010070474FEA4102D7
:1010B00012F5001215D211D56FF47873B3EB6252AA
:1010C00012D94FEAC12343F0004343EA505311F0D1
:1010D000004F23FA02F018BF404270474FF0000063
:1010E000704750EA013005D111F0004008BF6FF0A1
:1010F000004070474FF00000704700BF0348044BAA
:10110000834202D0034B03B1184770472C080020DC
:101110002C080020000000000548064B1B1AD90FC0
:1011200001EBA301491002D0034B03B118477047EC
:101130002C0800202C0800200000000010B5064CF0
:10114000237843B9FFF7DAFF044B13B10448AFF338
:1011500000800123237010BD300800200000000033
:10116000F855030808B5054B1BB105490548AFF311
:101170000080BDE80840FFF7CFBF00BF00000000BF
:1011800034080020F855030809E010F8013B5340EB
:10119000DBB2074931F8133083EA1222614601F1CC
:1011A000FF3C0029F1D10270120A4270704700BF63
:1011B0002856030810B5A2B39446013A1D4C84FB8F
:1011C00002E4D217C2EB64021B4CA4FB0C4EA2EB50
:1011D0009E1292B202F1010E1FFA8EFEBCF1630F55
:1011E00005D902321FFA82FEBCF57A7F14D0ACEB2F
:1011F0000E0C1FFA8CFC30B90EEBCE0303EBCC03C4
:10120000C3F58043013301280CD10EEBCE0E0EEB5B
:10121000CC0E0EF1FF3305E00EF1010E1FFA8EFE2B
:10122000E5E700234A00054800F811301B0A0132A7
:10123000835410BD6766666603B57EA5500800201E
:1012400038B514461D460A460021FFF7B3FF2A466B
:1012500001212046FFF7AEFFBDF8142002219DF8C2
:101260001000FFF7A7FFBDF81C2003219DF8180010
:10127000FFF7A0FF2E4B00221A7008E003F10802CE
:101280002C49C85C2C4988540133294A1370284BD7
:101290001B78072BF2D943F2926214212648FFF7FC
:1012A00073FF234B00221A7008E003F10802214962
:1012B000C85C2249885401331D4A13701C4B1B78AB
:1012C000072BF2D943F2926214211C48FFF75CFF0E
:1012D000174B00221A7008E003F108021549C85C98
:1012E000174988540133124A1370114B1B78072B8E
:1012F000F2D943F2926214211148FFF745FF0C4BDB
:1013000000221A7008E003F108020A49C85C0D497E
:1013100088540133064A1370054B1B78072BF2D90A
:1013200043F2926214210748FFF72EFF38BD00BF39
:101330004C08002050080020480000203000002009
:10134000180000200000002082B04FF0D843B3F80E
:1013500080309BB2ADF80630BDF8060080B202B016
:10136000704782B0ADF80600BDF806309BB2ADF80C
:101370000630BDF806309BB24FF0D842A2F880305C
:1013800002B0704782B0ADF80600BDF806309BB2DF
:10139000ADF80630BDF806309BB24FF0D842A2F847
:1013A0007E3002B0704708B5CF20FFF7EBFF00207A
:1013B000FFF7D7FFC120FFF7D4FF3020FFF7D1FFA1
:1013C000ED20FFF7DFFF6420FFF7CBFF0320FFF7DF
:1013D000C8FF1220FFF7C5FF8120FFF7C2FFE820FA
:1013E000FFF7D0FF8520FFF7BCFF1020FFF7B9FF04
:1013F0007A20FFF7B6FFCB20FFF7C4FF3920FFF7B5
:10140000B0FF2C20FFF7ADFF0020FFF7AAFF34202C
:10141000FFF7A7FF0220FFF7A4FFF720FFF7B2FFB7
:101420002020FFF79EFFEA20FFF7ACFF0020FFF728
:1014300098FF0020FFF795FFC020FFF7A3FF1B20B8
:10144000FFF78FFFC120FFF79DFF0120FFF789FF06
:10145000C520FFF797FF3020FFF783FF3020FFF70D
:1014600080FFC720FFF78EFFB720FFF77AFF3620F7
:10147000FFF788FF4820FFF774FF3A20FFF782FF4D
:101480005520FFF76EFFB120FFF77CFF0020FFF72C
:1014900068FF1A20FFF765FFB620FFF773FF0A20E9
:1014A000FFF75FFFA220FFF75CFFF220FFF76AFF64
:1014B0000020FFF756FF2620FFF764FF0120FFF70B
:1014C00050FFE020FFF75EFF0F20FFF74AFF2A20C2
:1014D000FFF747FF2820FFF744FF0820FFF741FFF1
:1014E0000E20FFF73EFF0820FFF73BFF5420FFF7D9
:1014F00038FFA920FFF735FF4320FFF732FF0A200E
:10150000FFF72FFF0F20FFF72CFF0020FFF729FF29
:101510000020FFF726FF0020FFF723FF0020FFF742
:1015200020FFE120FFF72EFF0020FFF71AFF152014
:10153000FFF717FF1720FFF714FF0720FFF711FF32
:101540001120FFF70EFF0620FFF70BFF2B20FFF700
:1015500008FF5620FFF705FF3C20FFF702FF05209C
:10156000FFF7FFFE1020FFF7FCFE0F20FFF7F9FE4C
:101570003F20FFF7F6FE3F20FFF7F3FE0F20FFF7B7
:10158000F0FE2B20FFF7FEFE0020FFF7EAFE002012
:10159000FFF7E7FE0120FFF7E4FE3F20FFF7E1FE43
:1015A0002A20FFF7EFFE0020FFF7DBFE0020FFF709
:1015B000D8FE0020FFF7D5FEEF20FFF7D2FE112066
:1015C000FFF7E0FE782001F069FB2920FFF7DAFE43
:1015D00008BD4FF0D843A3F87E00A3F880107047F1
:1015E000034B1A894FF0D843A3F87E20704700BF01
:1015F0005808002070B505460C46404B9B8841F6C4
:101600006312934217D045F21052934257D03B4E8B
:101610007089FFF7B7FE280AFFF7A3FEE8B2FFF7CD
:10162000A0FEB089FFF7AEFE200AFFF79AFEE0B2F7
:10163000FFF797FE70BD314B9B7953BB2F4A138840
:101640001D1AADB2013DADB25089FFF79BFE0020DF
:10165000FFF787FE0020FFF784FE280AFFF781FED0
:10166000E8B2FFF77EFE254DA889FFF78BFE200A22
:10167000FFF777FEE0B2FFF774FE68880138C0F329
:101680000F20FFF76EFE68880138C0B2FFF769FED1
:10169000D0E71A4E7089FFF775FE280AFFF761FE42
:1016A000E8B2FFF75EFE30880138C0F30F20FFF785
:1016B00058FE30880138C0B2FFF753FED3E70F4E13
:1016C0007089FFF75FFE280AFFF74BFE7089013033
:1016D00080B2FFF757FEE8B2FFF743FEB089FFF78D
:1016E00051FE200AFFF73DFEB089013080B2FFF7BE
:1016F00049FEE0B2FFF735FE9CE700BF5808002026
:1017000010B5764B9B79012B10D02BB9734B9A886F
:1017100041F663139A420FD00138062800F2888000
:10172000DFE800F0767472706E6C14006B4A91887A
:1017300041F663129142E8D0072877D8DFE800F03D
:1017400072746E7004766C6A802400E0E024634B4F
:101750009B8845F2105293426CD0362049F24132B8
:10176000934207D047F28972934203D047F29672B0
:10177000934201D144F008042146FFF72AFF574B5A
:101780009B8841F6631293420AD014F0200F54D084
:10179000524A11885288914202D2504802804180B8
:1017A00045F21052934251D04C4C6089FFF7EAFD4C
:1017B0000020FFF7D6FD0020FFF7D3FD2088013879
:1017C000C0F30F20FFF7CDFD20880138C0B2FFF72E
:1017D000C8FDA089FFF7D6FD0020FFF7C2FD00205D
:1017E000FFF7BFFD60880138C0F30F20FFF7B9FD98
:1017F00060880138C0B2FFF7B4FD10BDA024A6E791
:101800006024A4E72024A2E7C024A0E740249EE7A8
:1018100080249CE740249AE7C02498E7202496E798
:10182000602494E7A02492E7E02490E700248EE768
:1018300000248CE74FF4585090E7284A11885288CA
:101840009142ADD9254802804180A9E7234C6089A7
:10185000FFF798FD0020FFF784FD6089013080B21A
:10186000FFF790FD0020FFF77CFD6089023080B219
:10187000FFF788FD20880138C0F30F20FFF771FDC6
:101880006089033080B2FFF77DFD20880138C0B247
:10189000FFF767FDA089FFF775FD0020FFF761FDE9
:1018A000A089013080B2FFF76DFD0020FFF759FDE0
:1018B000A089023080B2FFF765FD60880138C0F36F
:1018C0000F20FFF74EFDA089033080B2FFF75AFDCD
:1018D00060880138C0B2FFF744FD8EE75808002049
:1018E00010B51446FFF786FEFFF77AFEA4B24FF05C
:1018F000D843A3F8804010BD08B5504B987100281C
:1019000052D1F0221A804FF4A0725A809B8845F27F
:101910001052934221D041F6631293422ED0474A8F
:101920002C2111812A2151812B21918145F21032E4
:10193000934203D047F29672934206D13F4A4FF446
:10194000A07111804FF4F071518049F60602934264
:1019500022D00020FFF7D4FE08BD384A4FF43051A2
:1019600011814FF4285151814FF42C5191814FF442
:10197000F07111804FF448715180D7E72F4A2C2124
:1019800011812B2151812A2191814FF4F071118015
:101990004FF448715180C9E7284B4FF4F0721A8018
:1019A0004FF448725A80D4E7244B4FF4A0721A8047
:1019B000F0225A809B8845F2105293420FD041F694
:1019C000631293421CD049F60602934218D01B4A78
:1019D0002C2111812A2151812B2191811DE0174A4F
:1019E0004FF4305111814FF4285151814FF42C5153
:1019F00091814FF4487111804FF4F07151800CE0E7
:101A00000E4A2C2111812A2151812B2191814FF4E1
:101A1000487111804FF4F071518045F210329342B9
:101A200003D047F29672934293D1044B4FF4F07275
:101A30001A804FF4A0725A808BE700BF580800202C
:101A40002DE9F04F99B0002400945A4B1A6B42F0E4
:101A500040021A631A6B02F040020092009A01944D
:101A60001A6B42F008021A631A6B02F00802019224
:101A7000019A02941A6B42F008021A631A6B02F080
:101A800008020292029A03941A6B42F020021A632F
:101A90001A6B02F020020392039A04941A6B42F02C
:101AA00002021A631B6B03F002030493049B4FF4BE
:101AB00080561396022714974FF00108CDF85480F2
:101AC00016970C23179313A93B4801F0C1F9202363
:101AD00013933A4D13A9284601F0BAF94FF0100BB1
:101AE000CDF84CB013A9284601F0B2F9139613A90A
:101AF000334801F0ADF94FF4004ACDF84CA0CDF8D1
:101B00005080DFF8C89013A9484601F0A1F92D4D87
:101B10004FF020432B6003F582736B600623AB60AC
:101B2000EC60C5F814B0AC61EC616C62AE62EC6262
:101B30004FF480432B636C63AC630F230C930D94C1
:101B40003C230E93129409230593069407930B9458
:101B500005AA0CA9284601F0DDFD322001F09EF80F
:101B6000D320FFF70FFCFFF7EFFB174EB080FFF716
:101B7000EBFBB080FFF7E8FBB0800002B080FFF71E
:101B8000E3FBB3880343B380FFF70DFC059707978A
:101B90002B6BAA6805A9686802F0FEFD2046FFF7D6
:101BA000ABFE42465146484601F04FFA19B0BDE837
:101BB000F08F00BF0038024000180240000C0240C5
:101BC0000014024068080020580800200004024069
:101BD000014B1B6858637047786B0020014B1B68F2
:101BE00098637047786B0020014B1B68D86370477F
:101BF000786B0020014B1B6818647047786B0020DD
:101C000010B5254C00228021204601F01EFA012249
:101C10008021204601F019FA012002F080FE002206
:101C20008021204601F011FA40211B4801F006FAFC
:101C30000028F9D0194B1B6800225A621A6842F03A
:101C400001021A604021144801F0F8F90128F9D086
:101C5000124B1B68586A80B2196A41F21112114284
:101C600008D1196A40F24442114203D11A6822F0A5
:101C700001021A60FEF7E6FB05A3D3E90023FEF795
:101C80005BFC0022064BFEF757FC41EC100B10BD2D
:101C90009CC420B07268A13F00040240306B002059
:101CA0000000E03F0000000010B5254C002220217C
:101CB000204601F0CAF901222021204601F0C5F991
:101CC000012002F02CFE00222021204601F0BDF967
:101CD00010211B4801F0B2F90028F9D0194B1B68FC
:101CE00000225A621A6842F001021A601021144858
:101CF00001F0A4F90128F9D0124B1B68586A80B290
:101D0000196A41F21112114208D1196A40F2444293
:101D1000114203D11A6822F001021A60FEF792FB09
:101D200005A3D3E90023FEF707FC0022064BFEF7CC
:101D300003FC41EC100B10BD9CC420B07268A13FA5
:101D400000040240306B00200000E03F0000000073
:101D500010B5294C00224FF40071204601F075F9AE
:101D600001224FF40071204601F06FF9012002F0CA
:101D7000D6FD00224FF40071204601F066F94FF4C1
:101D800080711D4801F05AF90028F8D01B4B1B68E0
:101D900000225A621A6842F001021A604FF4807100
:101DA000154801F04BF90128F8D0144B1B68586A0C
:101DB00080B2196A41F21112114208D1196A40F237
:101DC0004442114203D11A6822F001021A60FEF760
:101DD00039FB07A3D3E90023FEF7AEFB0022084B33
:101DE000FEF7AAFB41EC100B10BD00BFAFF3008063
:101DF0009CC420B07268A13F00040240306B0020F8
:101E00000000E03F0000000010B5274C0022082130
:101E1000204601F01AF901220821204601F015F9A7
:101E2000012002F07CFD00220821204601F00DF97E
:101E30004FF400411D4801F001F90028F8D01C4B77
:101E40001B6800225A621A6842F001021A604FF4BD
:101E50000041164801F0F2F80128F8D0144B1B6835
:101E6000586A80B2196A41F21112114208D1196AF6
:101E700040F24442114203D11A6822F001021A6072
:101E8000FEF7E0FA06A3D3E90023FEF755FB002294
:101E9000084BFEF751FB41EC100B10BDAFF3008077
:101EA0009CC420B07268A13F0004024000180240A8
:101EB000306B00200000E03F70B500224FF400714D
:101EC0001B4801F0C2F84FF48061194801F0B6F8E0
:101ED00004460028F7D1002601E00134E4B2172CB3
:101EE00016D8134D01224FF40071284601F0ADF8C9
:101EF000760000224FF40071284601F0A6F84FF456
:101F00008061284601F09AF80028E6D00136E4E71F
:101F1000074C01224FF40071204601F096F8002290
:101F20004FF40071204601F090F8304670BD00BFBC
:101F30000018024008B5012002F0F1FCFBE708B5EB
:101F400001201FF02BFB08BD10B5234B00221146CA
:101F5000224802F0F3FC224B1860224B00220121A0
:101F6000214802F0EBFC214C2060214A002121484D
:101F700002F076FC204B1860204A0021204802F035
:101F80006FFC204B1860204A0021204802F068FCBA
:101F90001F4B18601F4A00211F4802F061FC1F4BB5
:101FA00018601F4A00211F4802F05AFC1E4B18609F
:101FB0001E4A00211E4802F053FC1E4B18601E4AA8
:101FC00000211E4802F04CFC1D4B186014212068B3
:101FD00002F008FD10BD00BFC05F030811E6020853
:101FE000E4080020B05F03082DE60208E0080020A6
:101FF000A8600308351F0008846A00208460030875
:102000002DE20208806A0020606003083DE20208B9
:10201000F80800203C60030859E40208F408002096
:10202000186003089DE40208F0080020F45F03082C
:10203000B9E30208EC080020D05F0308A9E5020814
:10204000E80800202DE9F04186B0002301930293B7
:10205000039304930593224B1B6813B106B0BDE8AC
:10206000F0811F4B01221A60002600961D4B9A6BCF
:1020700042F001029A639B6B03F001030093009B03
:102080004FF48058CDF80480022702970325049569
:102090000C24059401A9144800F0DAFE4FF6807371
:1020A0000193029703960495059401A90F4800F047
:1020B000CFFE4CF233730193029703960495059477
:1020C00001A90B4800F0C4FECDF8048002970396E6
:1020D0000495059401A9074800F0BAFEBEE700BFC9
:1020E000886A0020003802400014024000100240BC
:1020F000000C02400018024010B58EB00023079378
:10210000089309930A930B930C930D9300930193F7
:102110000293039304930593069319484FF02042CA
:10212000026002F58272426006228260C36003612F
:10213000102242618361C361036243624FF48051A4
:102140008162C3624FF480410163436383634364EC
:102150000F23079308933C2109910B9211210C91B5
:102160000924009401930294049205916A4607A9F8
:1021700001F0D0FA08B90EB010BD00F079FAFAE714
:102180008C6A002008B5FFF75DFF08BD2DE9F04718
:102190008EB0002409940A940B940C940D9401942D
:1021A000604B1A6B42F004021A631A6B02F00402CD
:1021B0000192019A02941A6B42F020021A631A6B80
:1021C00002F020020292029A03941A6B42F08002FB
:1021D0001A631A6B02F080020392039A04941A6B3A
:1021E00042F001021A631A6B02F001020492049A8F
:1021F00005941A6B42F002021A631A6B02F0020293
:102200000592059A06941A6B42F010021A631A6B33
:1022100002F010020692069A07941A6B42F0080226
:102220001A631A6B02F008020792079A08941A6B55
:1022300042F040021A631B6B03F040030893089BB3
:10224000DFF8EC8022464FF48071404600F0FDFE3E
:10225000354F224648F2A821384600F0F6FE334EAC
:1022600022464FF48071304600F0EFFE01224FF419
:102270000071304600F0E9FE4FF4807ACDF824A0DA
:1022800001250A950B940C9409A9404600F0E0FD45
:102290004FF40048CDF824800A954FF00209CDF89C
:1022A0002C900C9409A9384600F0D2FDCDF824A05A
:1022B0000A950B940C9409A9304600F0C9FD4FF41F
:1022C000007309930A950B94CDF8309009A9304614
:1022D00000F0BEFD4FF4806309930A940B9509A9A1
:1022E000304600F0B5FDCDF824800A940B9409A97E
:1022F000304600F0ADFD4FF42A7309930A950B9414
:102300000C9409A9384600F0A3FD4FF4A873099373
:102310000A940B9409A9384600F09AFD0EB0BDE866
:10232000F08700BF0038024000040240001802405D
:102330000014024008B5704B834205D008226F4953
:102340006D4802F0BEF908BD6C4B1B78012B13D011
:10235000022B22D0032B31D0042B3DD0052B3FD0B4
:10236000062B00F0AD80072B00F0BE80082BE5D1D6
:10237000634B01221A70E1E7604A5078917841EA94
:10238000002160480180D178127942EA01225E4939
:102390000A805E4A01211170DAE7584A5078917834
:1023A00041EA00215A480180D178127942EA01229B
:1023B00058490A80554A02211170CBE74F4A90785C
:1023C00055490870D178127942EA012253490A80AE
:1023D0004E4A03211170BFE74C4A04211170BDE73A
:1023E0004A4A04211170454A527832B943498978E2
:1023F0004B48B0F800C061440180012A43D03F4AF5
:10240000D27832B93D4909794648B0F800C06144F4
:102410000180012A3ED0394A527932B93749897947
:102420004148B0F800C061440180012A39D0334AE4
:10243000D279042A3CD0052A3ED0394AB2F900208C
:10244000C82A02DD364AC8211180354AB2F9002077
:1024500012F1C80F03DA324A4FF638711180314A4F
:10246000B2F90020C82A02DD2E4AC82111802D4A67
:10247000B2F9002012F1C80FBFF672AF294A4FF629
:10248000387111806CE71D4A907825490A88121A24
:102490000A80B4E7194A107922490A88121A0A8078
:1024A000B9E7164A907920490A88121A0A80BEE7CD
:1024B0001E4944200880BEE71C4A50211180BCE719
:1024C0000E4A5078917841EA002115480180D07871
:1024D000117941EA0021134801805179927942EA49
:1024E000012211490A803EE7044A5178927842EA73
:1024F00001220E490A8039E7C06B0020DC6A002007
:1025000074840120808401207E840120778401204E
:102510007C8401207A840120768401207884012043
:1025200062000020600000205E000020B80800204B
:1025300030B595B03022002108A82CF02BFC0024E7
:102540000394049405940694079401941B4B1A6C0D
:1025500042F080521A641B6C03F080530193019B7C
:102560000294174B1A6842F480421A601B6803F405
:1025700080430293029B0225089501230B931023AD
:102580000C930E950F9408231093A8231193129582
:102590000423139308A800F05FFD0F230393049511
:1025A00005944FF4A05306934FF4805307930521ED
:1025B00003A800F0BBFF15B030BD00BF00380240DB
:1025C0000070004008B500F03DFBFFF7B1FFFFF7DA
:1025D000DDFD00F067FAFFF78FFD00F07DFA00F0F7
:1025E000E9F900F049F92BF0CFFA164C002120460A
:1025F00001F082FC0421204601F07EFC08212046E7
:1026000001F07AFC0C21204601F076FC0E4801F026
:1026100075F908220D490E4802F053F801224FF4D3
:1026200080710C4800F011FD05F0DAFF04F0D8FCD1
:1026300004F07AFC02F0E6F8FFF786FC02F0F4F80A
:10264000FEE700BF786B0020306B0020DC6A0020C2
:10265000C06B00200018024008B50268034B9A4284
:1026600000D008BD00F008FBFBE700BF00200040E1
:102670007047000000B583B0002200920D4B596CEA
:1026800041F480415964596C01F4804100910099F2
:102690000192196C41F0805119641B6C03F0805356
:1026A0000193019B0F216FF0010000F05FFB03B06D
:1026B0005DF804FB0038024030B589B004460023C1
:1026C0000193214B1A6C42F480721A641B6C03F460
:1026D00080730193019B02A903A800F0FDFF069BF4
:1026E000CBB900F0D9FF0346184AA2FB03239B0C89
:1026F000013B1748174A026040F2E732C26043606C
:10270000002303618360836101F05CFA054630B108
:10271000284609B030BD00F0BFFF4300E4E70C4895
:1027200001F0ECF805460028F2D12D2000F02EFB38
:102730000F2C01D90125EBE7002221462D2000F0C6
:1027400015FB054B1C60E3E70038024083DE1B43AA
:10275000E46A0020002000406C000020FEE7FEE755
:10276000FEE7FEE7FEE7704708B5024801F00FF903
:1027700008BD00BF306B002008B5024801F044FEE0
:1027800008BD00BF086C002008B5024801F03CFEFF
:1027900008BD00BFC06B002008B5024801F0F7F883
:1027A00008BD00BFE46A00200120704708B52CF086
:1027B000C5FB162303604FF0FF3008BD08B54FF08E
:1027C000FF31FFF7F3FFFEE770B50C461646002514
:1027D00006E0AFF30080214601F8010B01350C46FD
:1027E000B542F6DB304670BD70B50C461646002586
:1027F00004E014F8010BAFF300800135B542F8DBBB
:10280000304670BD4FF0FF3070474FF400534B60BF
:1028100000207047012070470020704710B5034624
:102820000C4A0D490D48006840B10C48006803444B
:10283000521A934206D8094A136010BD0748084C43
:102840000460F2E72CF07AFB0C2303604FF0FF30BA
:10285000F3E700BF00000220000400002C6B002002
:1028600098870120034AD2F8883043F47003C2F8F5
:102870008830704700ED00E000B585B0002300937C
:102880000193029303930F480F4A0260A72242600C
:1028900083604FF6FF72C2600361836101F092F9B9
:1028A00050B94FF4805300936946064801F095FAF9
:1028B00028B905B05DF804FBFFF7DAFEF1E7FFF792
:1028C000D7FEF6E7306B00200040014000B583B032
:1028D0000368154A934205D0144A93420FD003B0BF
:1028E0005DF804FB00230093114B1A6C42F00202C6
:1028F0001A641B6C03F002030093009BEFE70022B5
:1029000001920B4B596C41F4803159645B6C03F4B8
:1029100080330193019B0521182000F027FA18202D
:1029200000F034FADBE700BF000400400040014043
:102930000038024030B589B0002303930493059317
:10294000069307930268184B9A4201D009B030BD34
:102950000025019503F50D331A6B42F001021A634D
:102960001A6B02F001020192019A02951A6B42F071
:1029700002021A631B6B03F002030293029BC02343
:10298000039302240494079403A9084800F060FA12
:1029900003230393049405950695079403A904481B
:1029A00000F056FAD2E700BF0004004000000240E9
:1029B0000004024000B58FB000230A930B930C93E0
:1029C0000D93089309930193029303930493059342
:1029D000069307933148324A026040F28F624260A8
:1029E000836040F2CF72C26003618023836101F093
:1029F000E9F8002839D14FF480530A930AA92748EF
:102A000001F0EBF9002833D1244801F007F9002840
:102A100031D100230893099308A9204801F0EEFA68
:102A200060BB60230193002202920392059201A9E8
:102A30001A4801F057F920BB04220DEB0201174898
:102A400001F050F900BB082201A9144801F04AF92D
:102A5000E8B90C2201A9114801F044F9D0B90F4896
:102A6000FFF768FF0FB05DF804FBFFF701FEC2E758
:102A7000FFF7FEFDC8E7FFF7FBFDCAE7FFF7F8FD2C
:102A8000CFE7FFF7F5FDD7E7FFF7F2FDDBE7FFF74D
:102A9000EFFDDEE7FFF7ECFDE1E700BF786B00201C
:102AA0000004004008B50A480A4B03604FF4612354
:102AB000436000238360C36003610C224261836131
:102AC000C36101F0C9FB00B908BDFFF7D1FDFBE709
:102AD000086C00200044004008B50A480A4B036017
:102AE0004FF41653436000238360C36003610C22DC
:102AF00042618361C36101F0AFFB00B908BDFFF71C
:102B0000B7FDFBE7C06B00200048004010B58AB05D
:102B100000230593069307930893099303682F4AAC
:102B2000934204D02E4A93422CD00AB010BD002408
:102B300001942C4B1A6C42F400321A641A6C02F4A1
:102B400000320192019A02941A6B42F001021A6358
:102B50001B6B03F001030293029B0C2305930223DA
:102B60000693032308930723099305A91E4800F041
:102B70006FF922460521262000F0F8F8262000F003
:102B800005F9D2E700240394164B1A6C42F4802214
:102B90001A641A6C02F480220392039A04941A6B4A
:102BA00042F002021A631B6B03F002030493049BBE
:102BB0004FF44063059302230693032308930723EE
:102BC000099305A9094800F043F922460521272069
:102BD00000F0CCF8272000F0D9F8A6E70044004028
:102BE000004800400038024000000240000402405B
:102BF000DFF834D0FFF736FE0C480D490D4A0023AC
:102C000002E0D458C4500433C4188C42F9D30A4AA1
:102C10000A4C002301E013600432A242FBD32CF0E3
:102C200093F9FFF7CFFC704700000220000000205E
:102C30002C08002044A503083008002098870120B4
:102C4000FEE7000008B50B4B1A6842F400721A60E8
:102C50001A6842F480621A601A6842F480721A603C
:102C6000032000F071F80F20FFF726FDFFF702FDAB
:102C7000002008BD003C0240034A1168034B1B784A
:102C80000B441360704700BF506C002068000020A8
:102C9000014B1868704700BF506C002038B50446DF
:102CA000FFF7F6FF0546B4F1FF3F02D0044B1B7857
:102CB0001C44FFF7EDFF401BA042FAD338BD00BF14
:102CC00068000020002807DB00F01F0240090123F4
:102CD0009340024A42F82030704700BF00E100E014
:102CE000002808DB0901C9B200F1604000F561402D
:102CF00080F80013704700F00F000901C9B2014BC2
:102D00001954704714ED00E000B500F00700C0F161
:102D1000070CBCF1040F28BF4FF0040C031D062B59
:102D20000FD9C31E4FF0FF3E0EFA0CF021EA00014E
:102D300099400EFA03FE22EA0E0241EA02005DF813
:102D400004FB0023EEE70000074AD36823F4E063A6
:102D50001B041B0C000200F4E060034343F0BF635C
:102D600043F40033D360704700ED00E010B5044633
:102D7000054BD868C0F30220FFF7C6FF0146204686
:102D8000FFF7AEFF10BD00BF00ED00E008B5FFF794
:102D900099FF08BD70B50446866DFFF779FF94F87A
:102DA0003530DBB2022B06D080236365002384F824
:102DB0003430012070BD05462268136823F01603E5
:102DC00013602268536923F080035361236CE3B1DD
:102DD0002268136823F0080313602268136823F045
:102DE0000103136023681B6813F0010F11D0FFF774
:102DF0004FFF431B052BF5D920236365032084F87F
:102E00003500002384F83430D4E7A36C002BDFD1E5
:102E1000E3E7E26D3F239340B360012384F835304C
:102E2000002084F83400C5E790F83530DBB2022B7F
:102E300003D08023436501207047052380F8353097
:102E40000268136823F0010313600020704700003C
:102E500000230F2B00F2E98070B582B065E0856831
:102E60004FEA430E032404FA0EF425EA0405CC6865
:102E700004FA0EF42C438460446824EA02044A688D
:102E8000C2F300129A40224342605CE0DC0808343E
:102E900050F8242003F00705AD004FF00F0E0EFA96
:102EA00005FE22EA0E0E0A69AA4042EA0E0240F826
:102EB00024205CE0072200E0002202FA0EF22A43FE
:102EC00002345A4D45F82420594A94686FEA0C029E
:102ED00024EA0C054E6816F4801F01D04CEA040564
:102EE000534CA560E46802EA04054E6816F4001F1E
:102EF00001D04CEA04054E4CE560646802EA040522
:102F00004E6816F4003F01D04CEA0405484C656059
:102F1000246822404D6815F4803F01D04CEA040239
:102F2000434C226001330F2B7DD801229A400C685C
:102F300004EA020C32EA0404F4D14C6804F00304FD
:102F4000013C012C8BD94A6802F00302032A09D004
:102F5000C4685D000322AA4024EA02048A68AA40E9
:102F60002243C2604A6802F00302022A8ED004683B
:102F70004FEA430E032202FA0EF224EA02044A68E0
:102F800002F0030202FA0EF2224302604A6812F4CF
:102F9000403FC7D000220192264A546C44F480443A
:102FA0005464526C02F480420192019A9C08A51C60
:102FB0001E4A52F8255003F0030E4FEA8E0E0F22E0
:102FC00002FA0EF225EA02051B4A90423FF474AF62
:102FD00002F5806290421AD002F58062904218D0C9
:102FE00002F58062904216D002F58062904214D0C1
:102FF00002F58062904212D002F58062904210D0B9
:1030000002F5806290423FF455AF082255E7012255
:1030100053E7022251E703224FE704224DE705223E
:103020004BE7062249E702B070BD70470038014007
:10303000003C014000380240000002400369194290
:1030400001D001207047002070470AB181617047AC
:103050000904816170470000002800F0E08170B52C
:1030600082B00446036813F0010F3BD09F4B9B686E
:1030700003F00C03042B2CD09C4B9B6803F00C0337
:10308000082B21D06368B3F5803F4FD0B3F5A02F54
:1030900052D0964B1A6822F480321A601A6822F4D1
:1030A00080221A606368002B50D0FFF7F1FD0546BF
:1030B0008E4B1B6813F4003F14D1FFF7E9FD401B52
:1030C0006428F5D90320B1E1884B5B6813F4800FC5
:1030D000D8D0864B1B6813F4003F03D06368002BE5
:1030E00000F09F81236813F0020F54D07F4B9B6840
:1030F00013F00C0F3ED07D4B9B6803F00C03082BA4
:1031000033D0E368002B68D0794B01221A60FFF7B7
:10311000BFFD0546754B1B6813F0020F54D1FFF736
:10312000B7FD401B0228F5D903207FE16F4A1368E1
:1031300043F480331360B5E76C4B1A6842F4802285
:103140001A601A6842F480321A60ABE7FFF7A0FDFC
:103150000546664B1B6813F4003FC3D0FFF798FD8C
:10316000401B6428F5D9032060E1604B5B6813F4D1
:10317000800FC6D15D4B1B6813F0020F03D0E368CC
:10318000012B40F05081594A136823F0F80321695C
:1031900043EAC1031360236813F0080F42D0636948
:1031A0006BB3534B0122C3F8802EFFF771FD054628
:1031B0004E4B5B6F13F0020F34D1FFF769FD401BDC
:1031C0000228F5D9032031E1484A136823F0F803B7
:1031D000216943EAC1031360DDE7454B00221A6011
:1031E000FFF756FD0546414B1B6813F0020FD2D086
:1031F000FFF74EFD401B0228F5D9032016E13C4B9A
:103200000022C3F8802EFFF743FD0546374B5B6F66
:1032100013F0020F06D0FFF73BFD401B0228F5D943
:10322000032003E1236813F0040F77D02F4B1B6CAE
:1032300013F0805F33D1002301932C4B1A6C42F0C2
:1032400080521A641B6C03F080530193019B01258B
:10325000284B1B6813F4807F23D0A368012B34D044
:10326000052B38D0214B1A6F22F001021A671A6F12
:1032700022F004021A67A368002B3DD0FFF708FD77
:1032800006461A4B1B6F13F0020F46D1FFF700FDE5
:10329000801B41F288339842F3D90320C6E0002511
:1032A000D6E7144A136843F480731360FFF7F0FC09
:1032B0000646104B1B6813F4807FCED1FFF7E8FC65
:1032C000801B0228F5D90320B0E0084A136F43F0B1
:1032D00001031367CFE7054B1A6F42F004021A6728
:1032E0001A6F42F001021A67C5E700BF00380240BA
:1032F0000000474200700040FFF7CAFC0646524BF0
:103300001B6F13F0020F08D0FFF7C2FC801B41F2C5
:1033100088339842F3D9032088E0EDB9A369002BE4
:1033200000F08380484A926802F00C02082A51D0CB
:10333000022B17D0454B00221A66FFF7A9FC044662
:10334000414B1B6813F0007F42D0FFF7A1FC001B2C
:103350000228F5D9032069E03B4A136C23F080531F
:103360001364DBE7394B00221A66FFF791FC054630
:10337000354B1B6813F0007F06D0FFF789FC401B1C
:103380000228F5D9032051E0E369226A1343626AF7
:1033900043EA8213A26A5208013A43EA0243E26A0C
:1033A00043EA0263284A5360284B01221A66FFF75A
:1033B0006FFC0446244B1B6813F0007F06D1FFF717
:1033C00067FC001B0228F5D903202FE000202DE028
:1033D00000202BE0012B2BD01B4B5B6803F48001FA
:1033E000E269914226D103F03F02216A8A4223D149
:1033F000616A47F6C0721A40B2EB811F1ED103F416
:103400004031A26A5208013AB1EB024F18D103F0E1
:103410007063E26AB3EB026F14D1002006E0012072
:103420007047012002E0012000E0002002B070BDE2
:103430000120FBE70120F9E70120F7E70120F5E78C
:103440000120F3E70120F1E7003802400000474285
:1034500008B5334B9B6803F00C03042B5BD0082B9F
:103460005BD12F4B5A6802F03F025B6813F4800F68
:103470002CD02B4B5868C0F388104FEA401CBCEB93
:10348000000C6EEB0E0E4FEA8E1343EA9C634FEA7C
:103490008C11B1EB0C0163EB0E03DB0043EA5173BB
:1034A000C90011EB000C43F10003590200234FEA5D
:1034B0004C2041EADC51FDF7F9FA194B5B68C3F384
:1034C000014301335B00B0FBF3F008BD144B5868B7
:1034D000C0F388104FEA401CBCEB000C6EEB0E0EE4
:1034E0004FEA8E1343EA9C634FEA8C11B1EB0C0157
:1034F00063EB0E03DB0043EA5173C90011EB000CD0
:1035000043F10003990200234FEA8C2041EA9C51C9
:10351000FDF7CCFAD1E70348D7E70348D5E700BF6A
:103520000038024000127A000024F400002800F065
:103530009B8070B50D4604464F4B1B6803F0070394
:103540008B4208D2CBB24C4A1370136803F00703C6
:103550008B4240F08B80236813F0020F17D013F0DA
:10356000040F04D0454A936843F4E0539360236802
:1035700013F0080F04D0414A936843F4604393600A
:103580003E4A936823F0F003A1680B4393602368DD
:1035900013F0010F32D06368012B21D09A1E012A4B
:1035A00025D9364A126812F0020F61D033498A6871
:1035B00022F0030213438B60FFF76AFB06462F4B92
:1035C0009B6803F00C036268B3EB820F16D0FFF721
:1035D0005FFB801B41F288339842F0D9032042E020
:1035E000264A126812F4003FE0D101203BE0234A52
:1035F000126812F0007FD9D1012034E01E4B1B6805
:1036000003F00703AB4207D9EAB21B4B1A701B68E1
:1036100003F00703AB422DD1236813F0040F06D04B
:10362000164A936823F4E053E1680B4393602368E0
:1036300013F0080F07D0114A936823F460432169FF
:1036400043EAC1039360FFF703FF0C4B9B68C3F38E
:1036500003130B4AD35CD8400A4B18600A4B186816
:10366000FFF72AF8002070BD012070470120FAE71B
:103670000120F8E70120F6E7003C02400038024054
:10368000D4600308640000206C000020014B18681F
:10369000704700BF6400002008B5FFF7F7FF044B38
:1036A0009B68C3F38223034AD35CD84008BD00BFA4
:1036B00000380240CC60030808B5FFF7E7FF044B71
:1036C0009B68C3F34233034AD35CD84008BD00BFB4
:1036D00000380240CC6003080F2303600B4B9A684C
:1036E00002F0030242609A6802F0F00282609A6877
:1036F00002F4E052C2609B68DB0803F4E05303610C
:10370000034B1B6803F007030B607047003802404F
:10371000003C024040B370B50E461546044690F892
:103720004930E3B1214651F8080B00F0DDFFA268F3
:103730003146206801F00EF8236BA26829466068C4
:1037400001F02AF82268A16852F8213043F0010301
:1037500042F82130012384F84930002070BD80F800
:103760004830FEF70FFDDDE70120704730B4036AF3
:10377000026A22F0010202624268846924F0730C3A
:103780000C6844EA0C0423F0020C8B6843EA0C0337
:10379000114DA84203D005F58065A84205D123F05C
:1037A0000803CD682B4323F004030B4DA84203D03C
:1037B00005F58065A84207D122F440724D6945EABB
:1037C000020C8A6942EA0C02426084614A684263E0
:1037D000036230BC704700BF0000014030B4036A90
:1037E000026A22F4807202624268C46924F0730C97
:1037F0000C6844EA0C0523F400738C6843EA042344
:10380000114CA04203D004F58064A04206D123F4F9
:103810000063CC6843EA042323F480630A4CA0428B
:1038200003D004F58064A04207D122F440524C69D1
:1038300042EA04128C6942EA04124260C5614A6895
:10384000C263036230BC70470000014030B4036AB9
:10385000026A22F4805202624468C26922F4E6429B
:103860000D6842EA052223F400538D6843EA0533CC
:10387000094DA84203D005F58065A84204D124F47F
:1038800080444D6944EA85144460C2614A68026418
:10389000036230BC704700BF0000014010B4036AEF
:1038A000046A24F001040462846924F0F00C4CEAF8
:1038B000021223F00A030B43826103625DF8044B9A
:1038C000704710B4036A046A24F010040462846927
:1038D00024F4704C4CEA023223F0A00343EA0113B3
:1038E000826103625DF8044B7047836823F07003C4
:1038F0000B4343F0070383607047000090F83D30AE
:10390000DBB2012B37D1022380F83D300268D36847
:1039100043F00103D3600368194A934220D0B3F106
:10392000804F1DD0A2F57C42934219D002F58062EF
:10393000934215D002F58062934211D002F578428D
:1039400093420DD002F57052934209D0A2F5943201
:10395000934205D01A6842F001021A6000207047B5
:103960009A6802F00702062A07D01A6842F001029C
:103970001A6000207047012070470020704700BF88
:10398000000001407047704770477047704770B53E
:1039900004460368DE681D6915F0020F10D016F0AA
:1039A000020F0DD06FF002021A6101230377036842
:1039B0009B6913F0030F5ED0FFF7E6FF0023237728
:1039C00015F0040F12D016F0040F0FD023686FF01B
:1039D00004021A610223237723689B6913F4407F52
:1039E0004FD02046FFF7D0FF0023237715F0080FB4
:1039F00012D016F0080F0FD023686FF008021A617A
:103A0000042323772368DB6913F0030F40D020469B
:103A1000FFF7BAFF0023237715F0100F12D016F02E
:103A2000100F0FD023686FF010021A61082323775C
:103A30002368DB6913F4407F31D02046FFF7A4FFF1
:103A40000023237715F0010F02D016F0010F2DD1BE
:103A500015F0800F02D016F0800F2FD115F0400F17
:103A600002D016F0400F31D115F0200F02D016F021
:103A7000200F33D170BDFFF786FF2046FFF785FF8B
:103A80009CE72046FFF77FFF2046FFF77EFFABE76E
:103A90002046FFF778FF2046FFF777FFBAE720467A
:103AA000FFF771FF2046FFF770FFC9E723686FF04B
:103AB00001021A612046FEF7CFFDC9E723686FF0C7
:103AC00080021A61204600F0E0FAC7E723686FF031
:103AD00040021A612046FFF759FFC5E723686FF0DF
:103AE00020021A61204600F0CFFAC3E70368344A87
:103AF000904212D0B0F1804F0FD0A2F57C4290429C
:103B00000BD002F58062904207D002F580629042AD
:103B100003D002F57842904203D123F070034A6843
:103B20001343274A90422AD0B0F1804F27D0A2F504
:103B30007C42904223D002F5806290421FD002F571
:103B4000806290421BD002F57842904217D002F575
:103B50007052904213D002F5806290420FD002F56D
:103B6000806290420BD0A2F59832904207D002F5C5
:103B70008062904203D002F58062904203D123F428
:103B80004073CA68134323F080034A6913430360F8
:103B90008B68C3620B688362094B984203D003F5BC
:103BA0008063984201D10B69036301234361036978
:103BB00013F0010F03D0036923F001030361704781
:103BC0000000014040B310B5044690F83D30F3B119
:103BD000022384F83D30214651F8040BFFF786FF9D
:103BE000012384F8463084F83E3084F83F3084F86E
:103BF000403084F8413084F8423084F8433084F80F
:103C0000443084F8453084F83D30002010BD80F801
:103C10003C30FEF75BFEDBE70120704740B310B598
:103C2000044690F83D30F3B1022384F83D3021463C
:103C300051F8040BFFF75AFF012384F8463084F84B
:103C40003E3084F83F3084F8403084F8413084F8C6
:103C5000423084F8433084F8443084F8453084F8A6
:103C60003D30002010BD80F83C30FFF78BFEDBE7D5
:103C70000120704730B4036A026A22F01002026227
:103C80004468826922F4E6420D6842EA052223F084
:103C900020038D6843EA0513114DA84203D005F5B2
:103CA0008065A84206D123F08003CD6843EA05135E
:103CB00023F040030A4DA84203D005F58065A842D1
:103CC00007D124F440644D6944EA85048D6944EACF
:103CD0008504446082614A688263036230BC704735
:103CE0000000014038B590F83C30012B66D0044606
:103CF0000D46012380F83C300C2A5AD8DFE802F048
:103D0000075959591B595959305959594400006894
:103D1000FFF72CFD2268936943F008039361226842
:103D2000936923F0040393612268936929690B4323
:103D3000936100203EE00068FFF79CFF22689369D2
:103D400043F4006393612268936923F48063936171
:103D500022689369296943EA01239361002029E0DD
:103D60000068FFF73BFD2268D36943F00803D36185
:103D70002268D36923F00403D3612268D3692969D7
:103D80000B43D361002015E00068FFF75FFD226858
:103D9000D36943F40063D3612268D36923F4806359
:103DA000D3612268D369296943EA0123D3610020E2
:103DB00000E00120002384F83C3038BD0220FCE7FD
:103DC00010B4846824F47F4C42EA03220A4342EA96
:103DD0000C0282605DF8044B704790F83C30012B78
:103DE00078D010B50446012380F83C30022380F8D7
:103DF0003D300268936823F47F4323F07703936098
:103E00000B68602B4CD023D8402B54D011D8202BDA
:103E100003D00AD80BB1102B05D119462068FFF743
:103E200064FD002028E0012026E0302BF5D00120A1
:103E300022E0502B0AD1CA6849680068FFF72EFDBE
:103E400050212068FFF751FD002015E0012013E00C
:103E5000B3F5805F3AD0B3F5005F14D0702B37D143
:103E6000CB684A6889680068FFF7AAFF22689368F0
:103E700043F0770393600020012384F83D30002352
:103E800084F83C3010BDCB684A6889680068FFF749
:103E900097FF2268936843F4804393600020EBE728
:103EA000CA6849680068FFF70CFD60212068FFF7C9
:103EB0001CFD0020E0E7CA6849680068FFF7EEFCD7
:103EC00040212068FFF711FD0020D5E70020D3E74F
:103ED0000120D1E70220704701F01F014FF0010CD3
:103EE0000CFA01FC036A23EA0C030362036A8A40AA
:103EF000134303627047000010B5044608460029CA
:103F000042D194F83E30DBB2013B18BF0123002BB5
:103F10006ED1002851D1022384F83E30012201469F
:103F20002068FFF7D9FF2368334A934203D002F594
:103F30008062934203D15A6C42F400425A6423686F
:103F40002D4A934249D0B3F1804F46D0A2F57C422E
:103F5000934242D002F5806293423ED002F58062E5
:103F600093423AD002F57842934236D002F570522D
:103F7000934232D0A2F5943293422ED01A6842F086
:103F800001021A60002032E0042908D008290DD06F
:103F900094F84130DBB2013B18BF0123B7E794F836
:103FA0003F30DBB2013B18BF0123B0E794F840304B
:103FB000DBB2013B18BF0123A9E7042805D008287C
:103FC00007D0022384F84130A8E7022384F83F3069
:103FD000A4E7022384F84030A0E79A6802F00702C1
:103FE000062A07D01A6842F001021A60002010BDAC
:103FF0000120FCE70020FAE70000014090F83C2097
:10400000012A3DD010B40346012280F83C20022250
:1040100080F83D2002685068946820F0700C0868B1
:1040200040EA0C0050601A68164882421AD0B2F179
:10403000804F17D0A0F57C40824213D000F58060FD
:1040400082420FD000F5806082420BD000F57840AC
:10405000824207D000F57050824203D0A0F5943020
:10406000824204D124F080044968214391600122F6
:1040700083F83D20002083F83C005DF8044B704736
:10408000022070470000014070477047026802F14B
:104090000C0353E8003F23F490730C3242E80031E4
:1040A0000029F3D1026802F1140353E8003F23F022
:1040B0000103143242E800310029F3D1036B012BD4
:1040C00005D0202380F84230002303637047026844
:1040D00002F10C0353E8003F23F010030C3242E8D6
:1040E00000310029F3D1ECE790F84130DBB2212B0D
:1040F00001D0022070478368B3F5805F17D0036A50
:104100005A1C02621A7803685A60C38C9BB2013B46
:104110009BB2C3844BB90268D36823F08003D36099
:104120000268D36843F04003D360002070470369FE
:10413000002BE4D1036A1B880268C3F308035360B1
:10414000036A02330362E0E710B5044602681369AC
:1041500023F44053C1680B431361836802691A4317
:1041600043691A43C3691A430168CB6823F41643B1
:1041700023F00C031343CB600268536923F44073AC
:1041800081690B4353610368314A934206D002F5BB
:104190008062934202D0FFF77FFA01E0FFF78CFACA
:1041A000E369B3F5004F29D00021031849411B18DA
:1041B00041F10001C90041EA5371DB00181863683E
:1041C0004FEA83024FEA937341F10001FCF76EFC62
:1041D000204AA2FB00314909642303FB11031B01A0
:1041E0003233A2FB03235B0903F0F00202EB01125E
:1041F00003F00F03216813448B6010BD00230218E5
:1042000043EB0301121841F10001C90041EA527168
:10421000D200101841F10001626892185B41FCF76E
:1042200045FC0C4AA2FB00314909642303FB11033E
:10423000DB003233A2FB03235B095A0002F4F8725D
:1042400002EB011203F00703216813448B60D4E7EB
:10425000001001401F85EB5160B310B5044690F883
:10426000413013B3242384F841302268D36823F407
:104270000053D3602046FFF767FF2268136923F4D9
:10428000904313612268536923F02A035361226823
:10429000D36843F40053D36000206064202384F883
:1042A000413084F84230606310BD80F84030FEF742
:1042B0002DFCD7E70120704790F84130DBB2202B6E
:1042C00010D189B192B101628284C2840023436417
:1042D000212280F841200168CA6842F08002CA6049
:1042E0001846704702207047012070470120704730
:1042F000704708B50168CA6822F04002CA602022EF
:1043000080F84120FFF7F4FF002008BD704708B592
:10431000806B0023C385C384FFF7F8FF08BD704797
:1043200090F84230DBB2222B69D18368B3F5805F0D
:104330004FD0826AB3F5805F04D0002B56D1036959
:10434000002B53D103685B681370836A0133836267
:10435000C38D9BB2013B9BB2C385002B51D100B5ED
:1043600083B00268D36823F02003D3600268D36867
:1043700023F48073D3600268536923F0010353610F
:10438000202380F8423000234363036B012B33D199
:1043900000230363026802F10C0353E8003F23F09B
:1043A00010030C3242E800310029F3D103681A6887
:1043B00012F0100F06D0002201921A6801925B6879
:1043C0000193019B818DFFF7AAFF002003B05DF8E8
:1043D00004FB0269002AACD1826A03685B68C3F3FC
:1043E00008031380836A02338362B1E703685B6862
:1043F00003F07F031370A8E7FDF79CFFE5E70220B9
:10440000704700207047000010B582B00446026873
:104410001368D068516913F00F0F09D113F0200F02
:104420000CD010F0200F09D02046FFF779FF16E0DE
:1044300011F0010115D110F4907F12D1216B0129E7
:1044400079D013F0800F03D010F0800F40F014816A
:1044500013F0400F03D010F0400F40F0118102B074
:1044600010BD13F0010F06D010F4807F03D0626CF2
:1044700042F00102626413F0040F04D019B1626CBF
:1044800042F00202626413F0020F04D019B1626CB0
:1044900042F00402626413F0080F07D010F0200FFE
:1044A00000D119B1626C42F008026264626C002AA9
:1044B000D5D013F0200F02D010F0200F29D123689F
:1044C0005B6903F04003626C12F0080F00D163B324
:1044D0002046FFF7DBFD23685B6913F0400F20D017
:1044E000226802F1140353E8003F23F04003143222
:1044F00042E800310029F3D1E36B73B1624A1A65D7
:10450000E06BFEF791FC0028A9D0E06B036D9847A3
:10451000A5E72046FFF704FFD1E72046FFF7F6FEA8
:104520009DE72046FFF7F2FE99E72046FFF7EEFEF3
:104530000023636493E713F0100F82D010F0100F84
:104540003FF47FAF002301931368019353680193F5
:10455000019B536913F0400F52D0E26B13685B6804
:104560009BB2002B3FF47BAFA18D99427FF677AFD2
:10457000E385D369B3F5807F37D0226802F10C035D
:1045800053E8003F23F480730C3242E800310029E5
:10459000F3D1226802F1140353E8003F23F0010332
:1045A000143242E800310029F3D1226802F11403E9
:1045B00053E8003F23F04003143242E80031002961
:1045C000F3D1202384F8423000232363226802F1D0
:1045D0000C0353E8003F23F010030C3242E8003193
:1045E0000029F3D1E06BFEF7D5FB02236363A18DB5
:1045F000E38D9BB2C91A89B22046FFF790FE2EE7E1
:10460000A18DE38D9BB2C91A89B2E38D9BB2002BB9
:104610003FF425AF00293FF422AF226802F10C03DA
:1046200053E8003F23F490730C3242E80030002836
:10463000F3D1226802F1140353E8003F23F0010391
:10464000143242E800300028F3D1202384F84230AD
:1046500000232363226802F10C0353E8003F23F098
:1046600010030C3242E800300028F3D102236363C8
:104670002046FFF754FEF2E62046FFF735FDEEE652
:104680002046FFF736FEEAE60F4300088162828586
:10469000C28500234364222380F84230036923B19A
:1046A0000268D36843F48073D3600268536943F0AF
:1046B000010353610268D36843F02003D3600020F4
:1046C000704708B590F84230DBB2202B08D149B1D1
:1046D0000AB9012008BD00230363FFF7D7FFF9E7FC
:1046E0000220F7E70120F5E710B40A6850F82230FD
:1046F00023F0010340F822308B68082B25D00024DA
:104700004A6822431343CA6813430A6913434A6938
:104710001343CA6913430A6A13434A6A13438A6AF2
:104720001343CA6A13430A6B13438A691A43CB6B58
:104730001A43096850F82140054B2340134340F8C1
:10474000213000205DF8044B70474024D8E700BFBB
:104750008000F0FF10B5013250F8223003F0404CD9
:104760000B684C6843EA04138C6843EA0423CC6862
:1047700043EA04430C6904F1FF3E43EA0E534C69DB
:10478000A4F1020E43EA0E6389690B434CEA03036A
:1047900040F82230002010BDB3F5804F05D06FF0F7
:1047A000704340F822300020704730B450F8223077
:1047B000094C1C400B684D6843EA05138D6843EAB9
:1047C00005238D692B43C96843EA01431C4340F824
:1047D0002240002030BC70470000F0CF08B501F047
:1047E000BCFF10B102684068904708BD08B54FF0A3
:1047F000E0231B6901F0AAFC012800D108BD00F0EC
:1048000061FAFBE7EFF305832BB9064B186828B96B
:1048100001221A6070476FF0050070474FF0FF30BB
:10482000704700BF58750020EFF3058373B90A4B3A
:104830001B68012B0DD110B50024084BDC77064B0B
:1048400002221A6001F0C6F9204610BD6FF0050083
:1048500070474FF0FF3070475875002000ED00E0C2
:10486000F0B587B000240594EFF305847CBB70B3EA
:104870002AB31568936903B918235C1E372C4AD8EC
:10488000546814F0010F48D1566976B14FEA960C7E
:10489000946834B1D768B7F5C07F02D3176907B100
:1048A000C6B92CB14FF0FF340EE04FF0800CEFE7AB
:1048B000D4688CB9146994B14FF0FF3404E0154604
:1048C000002418234FF0800C012C0AD0ACB10598BD
:1048D00007B0F0BD0124F7E74FF0FF34F4E7002400
:1048E000F2E7146992680292019400930B466246C3
:1048F000294601F0FFF80590E9E705AA0192009327
:104900000B461FFA8CF2294601F031F90128DED05E
:1049100000230593DBE70020DAE70020D8E708B59D
:10492000EFF3058333B908B9002008BD01F0C8FAD8
:104930000020FAE76FF00500F7E700002DE9F043EB
:1049400083B0EFF30587002F43D10646894615460D
:104950001C4600283FD0082000F0FCFA80460028C2
:104960003BD006604560B9F1000F00D0012704B3C9
:104970002068A36813B1E2682B2A10D853B14FF016
:10498000FF33DBB10024404600F066FB204603B055
:10499000BDE8F083E3687BB14FF0FF33F1E70193AB
:1049A0000F4B009343463A46012101F007FD0446B0
:1049B0000CE020460023E4E70023E2E7084B0093E5
:1049C00043463A46012101F0DDFC0446002CDDD1CE
:1049D000D9E70024DAE70024D8E70446D6E700BF89
:1049E000DD470008EFF305836BB90A4670B100B5E7
:1049F00083B00093042101F00BFD012809D10020B0
:104A000003B05DF804FB6FF0050070476FF0030022
:104A100070476FF00200F3E7EFF3058393B910B529
:104A200082B0044688B101F07EFE88B10022009277
:104A300013460321204601F0EBFC01280BD1002096
:104A400002B010BD6FF0050070476FF00300F7E78C
:104A50006FF00200F4E74FF0FF30F1E7034B036023
:104A6000034B0B6080231360704700BFD873002096
:104A7000D8710020034B0360034B0B604FF480732D
:104A80001360704758700020546C002000F1080338
:104A900043604FF0FF328260C36003610023036014
:104AA000704700230361704743684B609A688A60CF
:104AB000516099600861036801330360704730B446
:104AC0000D68B5F1FF3F11D000F108031C465B688B
:104AD0001A68AA42FAD963684B6099608C60616079
:104AE000086103680133036030BC70470469F2E772
:104AF0000369416882688A60416851605A688242ED
:104B000006D0002202611A68013A1A6018687047DC
:104B100082685A60F5E7000082B0002301930D4BD4
:104B20001B68B3F1FF3F08D04FF0500383F31188A7
:104B3000BFF36F8FBFF34F8FFEE74FF0500383F348
:104B40001188BFF36F8FBFF34F8F019B002BFCD0F9
:104B500002B070477000002008480068006880F3C9
:104B600008884FF0000080F3148862B661B6BFF386
:104B70004F8FBFF36F8F00DF00BF000008ED00E034
:104B8000DFF80C00016841F470010160704700001B
:104B900088ED00E04FF0807340F8043C21F0010103
:104BA00040F8081C054B40F80C3C40F8202C6FF0F6
:104BB000020340F8243C4438704700BF194B0008FA
:104BC000074B19680868B0E8F04F80F30988BFF315
:104BD0006F8F4FF0000080F311887047AFF30080B3
:104BE000C01A01204FF0500383F31188BFF36F8F79
:104BF000BFF34F8F0B4A136801331360012B00D0B2
:104C000070474FF0E023D3F8043D13F0FF0FF7D0C7
:104C10004FF0500383F31188BFF36F8FBFF34F8FB3
:104C2000FEE700BF70000020094B1B6843B94FF03E
:104C3000500383F31188BFF36F8FBFF34F8FFEE7ED
:104C4000013B034A13600BB983F31188704700BF1F
:104C500070000020000000000000000000000000C4
:104C6000EFF30980BFF36F8F154B1A681EF0100F1A
:104C700008BF20ED108A20E9F04F10602DE90900EF
:104C80004FF0500080F31188BFF34F8FBFF36F8F49
:104C900001F03CF94FF0000080F3118809BC19685D
:104CA0000868B0E8F04F1EF0100F08BFB0EC108A93
:104CB00080F30988BFF36F8F704700BFAFF30080A8
:104CC000C01A012008B54FF0500383F31188BFF3D9
:104CD0006F8FBFF34F8F00F0E1FF28B14FF0E0235B
:104CE0004FF08052C3F8042D002383F3118808BDD0
:104CF0004FF0E022002313619361054B1B680549C7
:104D0000A1FB03139B09013B536107231361704708
:104D100064000020D34D62104FF0E023D3F8002D43
:104D20003D4B9A421CD04FF0E023D3F8002D3B4B73
:104D30009A421ED030B583B0394B1A78D2B2019264
:104D4000FF221A701B78DBB28DF803309DF8033018
:104D500003F05003334A1370334B07221A601BE0F1
:104D60004FF0500383F31188BFF36F8FBFF34F8F62
:104D7000FEE74FF0500383F31188BFF36F8FBFF34B
:104D80004F8FFEE7284A1368013B13609DF80330FC
:104D90005B00DBB28DF803309DF8033013F0800F19
:104DA000F0D1214B1B68032B08D04FF0500383F345
:104DB0001188BFF36F8FBFF34F8FFEE71B021A4AB4
:104DC000136003F4E0631360019BDBB2144A1370B9
:104DD0004FF0E024D4F8203D43F47003C4F8203DA4
:104DE000D4F8203D43F07043C4F8203DFFF780FF26
:104DF00000250E4B1D60FFF7C3FED4F8343F43F08F
:104E00004043C4F8343FFFF7A7FE01F07FF8FFF7F7
:104E100083FE284603B030BD71C20F4170C20F41FE
:104E200000E400E0607500205C7500207000002048
:104E3000EFF305830F2B0FD9114A9B5CDBB2114AAC
:104E400012789A4208D94FF0500383F31188BFF3C8
:104E50006F8FBFF34F8FFEE74FF0E023D3F80C3D89
:104E600003F4E063084A1268934208D94FF05003F4
:104E700083F31188BFF36F8FBFF34F8FFEE7704747
:104E8000F0E300E0607500205C750020124A12F02B
:104E9000070F1ED0D11D21F00701C1F52043134497
:104EA0000A460E480260002141601344083B23F08B
:104EB00007030B48036059601960991A5160136029
:104EC000084B1960084B1960084B4FF000421A60FC
:104ED00070474FF42043E4E7847500207C75002080
:104EE00078750020707500207475002064750020AE
:104EF000164B1A461B688342FBD3516802EB010C28
:104F0000844509D0416800EB010C634509D003607A
:104F1000904219D0106070474068014451601046BB
:104F2000F0E710B40A4C2468A3420BD05B68194424
:104F3000416013681B680360904200D010605DF808
:104F4000044B70470460F7E7704700BF7C75002092
:104F50007875002038B5044600F092FE384B1B6887
:104F6000B3B1384B1B681C4250D1002C50D004F117
:104F7000080214F0070F02D022F007020832002ABC
:104F800055D0314B1B68934253D330490C6804E031
:104F9000FFF77CFFE5E721461C466368934202D297
:104FA0002368002BF7D1264B1B68A34243D00D6822
:104FB000083523680B6063689B1A102B10D9A01862
:104FC00010F0070F08D04FF0500383F31188BFF3A0
:104FD0006F8FBFF34F8FFEE743606260FFF788FF7C
:104FE000626819490B689B1A0B60194909688B4262
:104FF00001D217490B60134B1B68134363600023F6
:105000002360144A13680133136002E0002500E0B6
:10501000002500F0D9FE15F0070F0ED04FF0500319
:1050200083F31188BFF36F8FBFF34F8FFEE7002527
:10503000EFE70025EDE70025EBE7284638BD00BF88
:105040007875002064750020747500207C75002040
:10505000707500206C750020002834D038B50446E7
:10506000A0F1080550F8043C174A1268134208D111
:105070004FF0500383F31188BFF36F8FBFF34F8F4F
:10508000FEE750F8081C41B14FF0500383F311883C
:10509000BFF36F8FBFF34F8FFEE723EA020340F8A1
:1050A000043C00F0EDFD54F8041C084A13680B445E
:1050B00013602846FFF71CFF054A1368013313608D
:1050C00000F082FE38BD70476475002074750020C2
:1050D0006875002010B50446FFF784FDA26BE36BF2
:1050E0009A4204D00024FFF79FFD204610BD012402
:1050F000F9E710B50446FFF775FDA36B23B901244A
:10510000FFF792FD204610BD0024F9E770B5044674
:105110001546866B026C5AB903681BB10020013634
:10512000A66370BD806801F021F80023A360F6E754
:105130006DB94068FBF744FE6368226C13446360FA
:10514000A268934219D3236863602846E7E7C068E2
:10515000FBF736FEE368226C51429B1AE36022683B
:10516000934202D2A3680B44E360022D01D00020D9
:10517000D5E726B1013E0020D1E72846CFE7002041
:10518000CDE70346026C6AB110B50846D9681144F0
:10519000D9609C68A14201D31968D960D968FBF72E
:1051A0000FFE10BD704738B50546FFF71BFD95F89B
:1051B000454064B201E0013C64B2002C0ADD6B6A38
:1051C00043B105F1240000F027FF0028F3D000F0E0
:1051D000B7FFF0E7FF2385F84530FFF725FDFFF720
:1051E00001FD95F8444064B201E0013C64B2002C3A
:1051F0000ADD2B6943B105F1100000F00DFF002816
:10520000F3D000F09DFFF0E7FF2385F84430FFF76F
:105210000BFD38BD38B5E0B10D460446FFF7E2FCA2
:105220002368E26B216C01FB0230A0600020A063C8
:105230006360013A02FB0133E360FF2384F84430EA
:1052400084F84530FDB9236963B9FFF7EDFC01200F
:1052500038BD4FF0500383F31188BFF36F8FBFF356
:105260004F8FFEE704F1100000F0D6FE0028ECD0CE
:105270004FF0E0234FF08052C3F8042DBFF34F8F5F
:10528000BFF36F8FE1E704F11000FFF7FFFB04F1BC
:105290002400FFF7FBFBD8E738B51D46049C0B46FE
:1052A00049B92460E063236401212046FFF7B2FF7F
:1052B00084F84C5038BD2260F4E740B94FF05003F9
:1052C00083F31188BFF36F8FBFF34F8FFEE710B5E5
:1052D00084B01C46844653B192B189B94FF0500353
:1052E00083F31188BFF36F8FBFF34F8FFEE74FF04B
:1052F000500383F31188BFF36F8FBFF34F8FFEE727
:105300006AB150230393039B502B13D04FF05003EB
:1053100083F31188BFF36F8FBFF34F8FFEE7002930
:10532000EFD04FF0500383F31188BFF36F8FBFF3BB
:105330004F8FFEE7039B012384F8463000949DF8CD
:1053400018306046FFF7A8FF204604B010BDF0B546
:1053500085B0019288B10F461D460446B1B1022DB9
:1053600020D1E36B012B1DD04FF0500383F3118844
:10537000BFF36F8FBFF34F8FFEE74FF0500383F300
:105380001188BFF36F8FBFF34F8FFEE7036C002BC5
:10539000E5D04FF0500383F31188BFF36F8FBFF355
:1053A0004F8FFEE700F0D2FE064658B9019B002B56
:1053B00048D04FF0500383F31188BFF36F8FBFF3D2
:1053C0004F8FFEE700263DE02A4639462046FFF78C
:1053D0009DFE636A7BB948B14FF0E0234FF08052E5
:1053E000C3F8042DBFF34F8FBFF36F8FFFF71CFC83
:1053F000012005B0F0BD04F1240000F00DFE0028EE
:10540000F4D04FF0E0234FF08052C3F8042DBFF3E7
:105410004F8FBFF36F8FE9E7FFF706FC0020E8E747
:1054200002A800F03FFE012619E0002384F8443072
:1054300021E0002384F8453023E02046FFF7B3FE47
:1054400000F0C2FCFFF7CEFBA26BE36B9A42BBD32A
:10545000022DB9D0019B002BDED0002EE0D0FFF74B
:10546000E3FB00F00DFCFFF7BDFB94F8442052B2C3
:10547000B2F1FF3FD9D094F8452052B2B2F1FF3FCC
:10548000D7D0FFF7D1FB01A902A800F017FED8B9C9
:105490002046FFF71FFE0028CFD0019904F110002D
:1054A00000F086FD2046FFF77EFE00F08DFC002810
:1054B000C8D14FF0E0234FF08052C3F8042DBFF362
:1054C0004F8FBFF36F8FBDE72046FFF76CFE00F0F4
:1054D0007BFC00208DE72DE9F84390B10F4616467E
:1054E0001C460546B1B1022C20D1EB6B012B1DD01F
:1054F0004FF0500383F31188BFF36F8FBFF34F8FCB
:10550000FEE74FF0500383F31188BFF36F8FBFF3B3
:105510004F8FFEE7036C002BE5D04FF0500383F371
:105520001188BFF36F8FBFF34F8FFEE7FFF780FC4B
:10553000EFF311884FF0500383F31188BFF36F8F9F
:10554000BFF34F8FAA6BEB6B9A4206D3022C04D0A9
:10555000002088F31188BDE8F88395F845904FFA4C
:1055600089F9AB6B224639462846FFF7CFFDB9F1E2
:10557000FF3F06D009F101035BB285F845300120F9
:10558000E7E76B6A0BB90120E3E705F1240000F0BF
:1055900043FD18B126B101203060DAE70120D8E7D9
:1055A0000120D6E7F0B585B0019290B10F460446D0
:1055B000C1B100F0CBFD064600BB019B002B5ED0C5
:1055C0004FF0500383F31188BFF36F8FBFF34F8FFA
:1055D000FEE74FF0500383F31188BFF36F8FBFF3E3
:1055E0004F8FFEE7036C002BE3D04FF0500383F3A3
:1055F0001188BFF36F8FBFF34F8FFEE700263EE0A9
:1056000039462046FFF7BDFD013DA563236923B957
:10561000FFF70AFB012005B0F0BD04F1100000F017
:10562000FBFC0028F4D04FF0E0234FF08052C3F889
:10563000042DBFF34F8FBFF36F8FE9E7FFF7F4FA45
:105640000020E8E702A800F02DFD012621E000235C
:1056500084F8443029E0002384F845302BE02046CC
:10566000FFF7A1FD00F0B0FB09E02046FFF79BFD2E
:1056700000F0AAFB2046FFF73CFD00283FD1FFF7D2
:10568000B1FAA56B002DBBD1019B002BD6D0002E0B
:10569000D8D0FFF7C9FA00F0F3FAFFF7A3FA94F8AD
:1056A00044305BB2B3F1FF3FD1D094F845305BB2E8
:1056B000B3F1FF3FCFD0FFF7B7FA01A902A800F07E
:1056C000FDFC0028D1D12046FFF713FD0028C6D0ED
:1056D000019904F1240000F06BFC2046FFF763FD04
:1056E00000F072FB0028CAD14FF0E0234FF0805247
:1056F000C3F8042DBFF34F8FBFF36F8FBFE70020B8
:1057000089E700000023072B0CD8074A52F8332002
:105710000AB10133F7E7044A42F8331002EBC3023F
:1057200050607047704700BF8415012070B5044673
:105730000D461646FFF756FA94F844305BB2B3F1C3
:10574000FF3F0DD094F845305BB2B3F1FF3F0BD073
:10575000FFF76AFAA36B5BB12046FFF724FD70BD2B
:10576000002384F84430EDE7002384F84530EFE768
:105770003246294604F1240000F032FCECE7000038
:10578000084B1B681B6823B9074B4FF0FF321A60A8
:105790007047044B1B68DB68DB685A68024B1A6071
:1057A000704700BF34160120CC1501202DE9F047C9
:1057B00080460D4617469946089EDDF824A00A9CAF
:1057C0009200A521206B29F0E5FA236B07F18042B6
:1057D000013A03EB820727F00707002D61D04FF055
:1057E000000CBCF10F0F09D815F80C3004EB0C02BB
:1057F00082F8343013B10CF1010CF2E7002384F885
:105800004330372E00D93726E662E6640025256549
:10581000201DFFF746F904F11800FFF742F9246153
:10582000C6F13806A6616462C4F8785184F87C51E8
:105830004FF49072294604F1580029F0ABFA1B4B43
:10584000E36503F168022266D03363660122002318
:10585000C4E93C2343F20E33A4F8F8304AF6CD33C2
:10586000A4F8FA3041F23423A4F8FC304EF26D6310
:10587000A4F8FE304DF6EC63A4F800310523A4F83B
:1058800002310B23A4F804314A4641463846FFF75B
:1058900081F92060BAF1000F01D0CAF80040BDE8DC
:1058A000F087002384F83430ABE700BF8484012004
:1058B00038B5002407E004EB840293000E48184436
:1058C000FFF7E4F80134372CF5D90C4D2846FFF7E3
:1058D000DDF80B4C2046FFF7D9F80A48FFF7D6F859
:1058E0000948FFF7D3F80948FFF7D0F8084B1D60C7
:1058F000084B1C6038BD00BF601601204C1601200B
:10590000381601201C16012008160120F015012070
:10591000341601203016012010B50446FFF762F955
:10592000224A136801331360214B1B685BB1214B82
:105930001B686BB91E4B1B68DA6AE36A9A4207D888
:105940001B4B1C6004E01A4B1C601368012B29D010
:10595000194A1368013313606364E06A174B1B68CC
:10596000984201D9154B186000EB8000211D144BA3
:1059700003EB8000FFF798F8FFF756F90D4B1B6813
:105980007BB10B4B1B68DA6AE36A9A4209D24FF08B
:10599000E0234FF08052C3F8042DBFF34F8FBFF3C5
:1059A0006F8F10BDFFF784FFD2E700BFEC15012019
:1059B000C01A0120E0150120D0150120E4150120B6
:1059C0006016012010B50446583029F047FA94F8C3
:1059D0007D3163B1012B11D0022B0ED04FF050035B
:1059E00083F31188BFF36F8FBFF34F8FFEE7206BF8
:1059F000FFF732FB2046FFF72FFB10BD2046FFF7D5
:105A00002BFBFAE70F4B1B68D3B110B5FFF7EAF891
:105A10000D4BDB68DC68201DFFF76AF80B4A136842
:105A2000013B1360074A1368013B1360FFF7FCF862
:105A30002046FFF7C7FF034B1B68002BE6D110BDC4
:105A4000704700BF0416012008160120EC15012044
:105A500008B5FFF7D7FF074B1B68012BF9D94FF0AB
:105A6000E0234FF08052C3F8042DBFF34F8FBFF3F4
:105A70006F8FEEE76016012070B504460D46174B98
:105A80001E68174B18680430FFF732F8B4F1FF3F77
:105A90000DD03444124B1B685C60A64210D9114BE8
:105AA00018680F4B19680431FFF709F870BD002D15
:105AB000EFD00B4B196804310B48FEF7F5FFF5E703
:105AC0000A4B1868064B19680431FEF7F8FF084BBB
:105AD0001B68A342EAD9064B1C60E7E7E8150120E2
:105AE000C01A012030160120F015012034160120C3
:105AF000CC15012030B587B00B9C8CB10C9DC5B185
:105B00004FF4C0750495049DB5F5C07F1AD04FF0D1
